{
  "_format": "hh-sol-artifact-1",
  "contractName": "XineteDecentralizedStorage",
  "sourceName": "contracts/XineteDecentralizedStorage.sol",
  "abi": [
    {
      "anonymous": false,
      "inputs": [
        {
          "indexed": true,
          "internalType": "address",
          "name": "creator",
          "type": "address"
        },
        {
          "indexed": false,
          "internalType": "string",
          "name": "cid",
          "type": "string"
        }
      ],
      "name": "MetadataRemoved",
      "type": "event"
    },
    {
      "anonymous": false,
      "inputs": [
        {
          "indexed": true,
          "internalType": "address",
          "name": "creator",
          "type": "address"
        },
        {
          "indexed": false,
          "internalType": "string",
          "name": "cid",
          "type": "string"
        },
        {
          "indexed": false,
          "internalType": "string",
          "name": "hash",
          "type": "string"
        },
        {
          "indexed": false,
          "internalType": "string",
          "name": "nftName",
          "type": "string"
        },
        {
          "indexed": false,
          "internalType": "uint256",
          "name": "timestamp",
          "type": "uint256"
        }
      ],
      "name": "MetadataStored",
      "type": "event"
    },
    {
      "anonymous": false,
      "inputs": [
        {
          "indexed": true,
          "internalType": "address",
          "name": "creator",
          "type": "address"
        },
        {
          "indexed": false,
          "internalType": "string",
          "name": "oldCid",
          "type": "string"
        },
        {
          "indexed": false,
          "internalType": "string",
          "name": "newCid",
          "type": "string"
        },
        {
          "indexed": false,
          "internalType": "string",
          "name": "hash",
          "type": "string"
        }
      ],
      "name": "MetadataUpdated",
      "type": "event"
    },
    {
      "inputs": [
        {
          "internalType": "string",
          "name": "_hash",
          "type": "string"
        }
      ],
      "name": "getCIDByHash",
      "outputs": [
        {
          "internalType": "string",
          "name": "",
          "type": "string"
        }
      ],
      "stateMutability": "view",
      "type": "function"
    },
    {
      "inputs": [
        {
          "internalType": "string",
          "name": "_cid",
          "type": "string"
        }
      ],
      "name": "getMetadataInfo",
      "outputs": [
        {
          "components": [
            {
              "internalType": "string",
              "name": "cid",
              "type": "string"
            },
            {
              "internalType": "string",
              "name": "hash",
              "type": "string"
            },
            {
              "internalType": "uint256",
              "name": "timestamp",
              "type": "uint256"
            },
            {
              "internalType": "string",
              "name": "nftName",
              "type": "string"
            },
            {
              "internalType": "string",
              "name": "imageURI",
              "type": "string"
            }
          ],
          "internalType": "struct XineteDecentralizedStorage.MetadataInfo",
          "name": "",
          "type": "tuple"
        }
      ],
      "stateMutability": "view",
      "type": "function"
    },
    {
      "inputs": [
        {
          "internalType": "string",
          "name": "_cid",
          "type": "string"
        }
      ],
      "name": "getMetadataOwner",
      "outputs": [
        {
          "internalType": "address",
          "name": "",
          "type": "address"
        }
      ],
      "stateMutability": "view",
      "type": "function"
    },
    {
      "inputs": [
        {
          "internalType": "address",
          "name": "_user",
          "type": "address"
        }
      ],
      "name": "getUserMetadataCIDs",
      "outputs": [
        {
          "internalType": "string[]",
          "name": "",
          "type": "string[]"
        }
      ],
      "stateMutability": "view",
      "type": "function"
    },
    {
      "inputs": [
        {
          "internalType": "string",
          "name": "_cid",
          "type": "string"
        }
      ],
      "name": "removeMetadata",
      "outputs": [],
      "stateMutability": "nonpayable",
      "type": "function"
    },
    {
      "inputs": [
        {
          "internalType": "string",
          "name": "_cid",
          "type": "string"
        },
        {
          "internalType": "string",
          "name": "_hash",
          "type": "string"
        },
        {
          "internalType": "string",
          "name": "_nftName",
          "type": "string"
        },
        {
          "internalType": "string",
          "name": "_imageURI",
          "type": "string"
        }
      ],
      "name": "storeMetadata",
      "outputs": [],
      "stateMutability": "nonpayable",
      "type": "function"
    },
    {
      "inputs": [
        {
          "internalType": "string",
          "name": "_oldCid",
          "type": "string"
        },
        {
          "internalType": "string",
          "name": "_newCid",
          "type": "string"
        },
        {
          "internalType": "string",
          "name": "_hash",
          "type": "string"
        },
        {
          "internalType": "string",
          "name": "_nftName",
          "type": "string"
        },
        {
          "internalType": "string",
          "name": "_imageURI",
          "type": "string"
        }
      ],
      "name": "updateMetadata",
      "outputs": [],
      "stateMutability": "nonpayable",
      "type": "function"
    },
    {
      "inputs": [
        {
          "internalType": "string",
          "name": "_cid",
          "type": "string"
        },
        {
          "internalType": "string",
          "name": "_hash",
          "type": "string"
        }
      ],
      "name": "verifyMetadata",
      "outputs": [
        {
          "internalType": "bool",
          "name": "",
          "type": "bool"
        }
      ],
      "stateMutability": "view",
      "type": "function"
    }
  ],
  "bytecode": "0x608060405234801561001057600080fd5b50612818806100206000396000f3fe608060405234801561001057600080fd5b50600436106100885760003560e01c8063891b3bc01161005b578063891b3bc014610125578063de1bbfcf14610155578063f1d0a76414610185578063f7683dac146101a157610088565b80633dc3c1751461008d578063704e7653146100a957806376880fcf146100d95780638025c61d14610109575b600080fd5b6100a760048036038101906100a2919061173b565b6101d1565b005b6100c360048036038101906100be9190611784565b610581565b6040516100d09190611817565b60405180910390f35b6100f360048036038101906100ee9190611890565b61063d565b60405161010091906119fe565b60405180910390f35b610123600480360381019061011e9190611a20565b610754565b005b61013f600480360381019061013a919061173b565b610d86565b60405161014c9190611bcb565b60405180910390f35b61016f600480360381019061016a919061173b565b6110bd565b60405161017c9190611bfc565b60405180910390f35b61019f600480360381019061019a9190611c17565b611105565b005b6101bb60048036038101906101b6919061173b565b6114a5565b6040516101c89190611d38565b60405180910390f35b3373ffffffffffffffffffffffffffffffffffffffff166002826040516101f89190611d96565b908152602001604051809103902060009054906101000a900473ffffffffffffffffffffffffffffffffffffffff1673ffffffffffffffffffffffffffffffffffffffff161461027d576040517f08c379a000000000000000000000000000000000000000000000000000000000815260040161027490611df9565b60405180910390fd5b60008060003373ffffffffffffffffffffffffffffffffffffffff1673ffffffffffffffffffffffffffffffffffffffff168152602001908152602001600020905060005b81805490508110156103ab5782805190602001208282815481106102e9576102e8611e19565b5b906000526020600020016040516103009190611f4b565b60405180910390200361039857816001838054905061031f9190611f91565b815481106103305761032f611e19565b5b9060005260206000200182828154811061034d5761034c611e19565b5b906000526020600020019081610363919061219c565b508180548061037557610374612284565b5b6001900381819060005260206000200160006103919190611555565b90556103ab565b80806103a3906122b3565b9150506102c2565b5060006003836040516103be9190611d96565b908152602001604051809103902060010180546103da90611e77565b80601f016020809104026020016040519081016040528092919081815260200182805461040690611e77565b80156104535780601f1061042857610100808354040283529160200191610453565b820191906000526020600020905b81548152906001019060200180831161043657829003601f168201915b5050505050905060018160405161046a9190611d96565b908152602001604051809103902060006104849190611555565b6002836040516104949190611d96565b908152602001604051809103902060006101000a81549073ffffffffffffffffffffffffffffffffffffffff02191690556003836040516104d59190611d96565b9081526020016040518091039020600080820160006104f49190611555565b6001820160006105049190611555565b600282016000905560038201600061051c9190611555565b60048201600061052c9190611555565b50503373ffffffffffffffffffffffffffffffffffffffff167f8b26819a389170c89311028114d5b1c55b3f693820d51b04bbaf4d93ccc4efe0846040516105749190611d38565b60405180910390a2505050565b60008073ffffffffffffffffffffffffffffffffffffffff166002846040516105aa9190611d96565b908152602001604051809103902060009054906101000a900473ffffffffffffffffffffffffffffffffffffffff1673ffffffffffffffffffffffffffffffffffffffff1614158015610635575082805190602001206001836040516106109190611d96565b908152602001604051809103902060405161062b9190611f4b565b6040518091039020145b905092915050565b60606000808373ffffffffffffffffffffffffffffffffffffffff1673ffffffffffffffffffffffffffffffffffffffff168152602001908152602001600020805480602002602001604051908101604052809291908181526020016000905b828210156107495783829060005260206000200180546106bc90611e77565b80601f01602080910402602001604051908101604052809291908181526020018280546106e890611e77565b80156107355780601f1061070a57610100808354040283529160200191610735565b820191906000526020600020905b81548152906001019060200180831161071857829003601f168201915b50505050508152602001906001019061069d565b505050509050919050565b3373ffffffffffffffffffffffffffffffffffffffff1660028660405161077b9190611d96565b908152602001604051809103902060009054906101000a900473ffffffffffffffffffffffffffffffffffffffff1673ffffffffffffffffffffffffffffffffffffffff1614610800576040517f08c379a00000000000000000000000000000000000000000000000000000000081526004016107f790611df9565b60405180910390fd5b6000845111610844576040517f08c379a000000000000000000000000000000000000000000000000000000000815260040161083b90612347565b60405180910390fd5b6000835111610888576040517f08c379a000000000000000000000000000000000000000000000000000000000815260040161087f906123b3565b60405180910390fd5b600073ffffffffffffffffffffffffffffffffffffffff166002856040516108b09190611d96565b908152602001604051809103902060009054906101000a900473ffffffffffffffffffffffffffffffffffffffff1673ffffffffffffffffffffffffffffffffffffffff1614610935576040517f08c379a000000000000000000000000000000000000000000000000000000000815260040161092c9061241f565b60405180910390fd5b60006001846040516109479190611d96565b9081526020016040518091039020805461096090611e77565b9050146109a2576040517f08c379a00000000000000000000000000000000000000000000000000000000081526004016109999061248b565b60405180910390fd5b60008060003373ffffffffffffffffffffffffffffffffffffffff1673ffffffffffffffffffffffffffffffffffffffff168152602001908152602001600020905060005b8180549050811015610a75578680519060200120828281548110610a0e57610a0d611e19565b5b90600052602060002001604051610a259190611f4b565b604051809103902003610a625785828281548110610a4657610a45611e19565b5b906000526020600020019081610a5c91906124ab565b50610a75565b8080610a6d906122b3565b9150506109e7565b506000600387604051610a889190611d96565b90815260200160405180910390206001018054610aa490611e77565b80601f0160208091040260200160405190810160405280929190818152602001828054610ad090611e77565b8015610b1d5780601f10610af257610100808354040283529160200191610b1d565b820191906000526020600020905b815481529060010190602001808311610b0057829003601f168201915b50505050509050600181604051610b349190611d96565b90815260200160405180910390206000610b4e9190611555565b600287604051610b5e9190611d96565b908152602001604051809103902060006101000a81549073ffffffffffffffffffffffffffffffffffffffff021916905533600287604051610ba09190611d96565b908152602001604051809103902060006101000a81548173ffffffffffffffffffffffffffffffffffffffff021916908373ffffffffffffffffffffffffffffffffffffffff16021790555085600186604051610bfd9190611d96565b90815260200160405180910390209081610c1791906124ab565b50600387604051610c289190611d96565b908152602001604051809103902060008082016000610c479190611555565b600182016000610c579190611555565b6002820160009055600382016000610c6f9190611555565b600482016000610c7f9190611555565b50506040518060a0016040528087815260200186815260200142815260200185815260200184815250600387604051610cb89190611d96565b90815260200160405180910390206000820151816000019081610cdb91906124ab565b506020820151816001019081610cf191906124ab565b50604082015181600201556060820151816003019081610d1191906124ab565b506080820151816004019081610d2791906124ab565b509050503373ffffffffffffffffffffffffffffffffffffffff167f449c118d82aeb6245a81afd8bfb85d7e5e2fd4390f72ce5ee08ae4a077629f8b888888604051610d759392919061257d565b60405180910390a250505050505050565b610d8e611595565b600073ffffffffffffffffffffffffffffffffffffffff16600283604051610db69190611d96565b908152602001604051809103902060009054906101000a900473ffffffffffffffffffffffffffffffffffffffff1673ffffffffffffffffffffffffffffffffffffffff1603610e3b576040517f08c379a0000000000000000000000000000000000000000000000000000000008152600401610e3290612615565b60405180910390fd5b600382604051610e4b9190611d96565b90815260200160405180910390206040518060a0016040529081600082018054610e7490611e77565b80601f0160208091040260200160405190810160405280929190818152602001828054610ea090611e77565b8015610eed5780601f10610ec257610100808354040283529160200191610eed565b820191906000526020600020905b815481529060010190602001808311610ed057829003601f168201915b50505050508152602001600182018054610f0690611e77565b80601f0160208091040260200160405190810160405280929190818152602001828054610f3290611e77565b8015610f7f5780601f10610f5457610100808354040283529160200191610f7f565b820191906000526020600020905b815481529060010190602001808311610f6257829003601f168201915b5050505050815260200160028201548152602001600382018054610fa290611e77565b80601f0160208091040260200160405190810160405280929190818152602001828054610fce90611e77565b801561101b5780601f10610ff05761010080835404028352916020019161101b565b820191906000526020600020905b815481529060010190602001808311610ffe57829003601f168201915b5050505050815260200160048201805461103490611e77565b80601f016020809104026020016040519081016040528092919081815260200182805461106090611e77565b80156110ad5780601f10611082576101008083540402835291602001916110ad565b820191906000526020600020905b81548152906001019060200180831161109057829003601f168201915b5050505050815250509050919050565b60006002826040516110cf9190611d96565b908152602001604051809103902060009054906101000a900473ffffffffffffffffffffffffffffffffffffffff169050919050565b6000845111611149576040517f08c379a000000000000000000000000000000000000000000000000000000000815260040161114090612681565b60405180910390fd5b600083511161118d576040517f08c379a0000000000000000000000000000000000000000000000000000000008152600401611184906123b3565b60405180910390fd5b600073ffffffffffffffffffffffffffffffffffffffff166002856040516111b59190611d96565b908152602001604051809103902060009054906101000a900473ffffffffffffffffffffffffffffffffffffffff1673ffffffffffffffffffffffffffffffffffffffff161461123a576040517f08c379a0000000000000000000000000000000000000000000000000000000008152600401611231906126ed565b60405180910390fd5b600060018460405161124c9190611d96565b9081526020016040518091039020805461126590611e77565b9050146112a7576040517f08c379a000000000000000000000000000000000000000000000000000000000815260040161129e90612759565b60405180910390fd5b6000803373ffffffffffffffffffffffffffffffffffffffff1673ffffffffffffffffffffffffffffffffffffffff1681526020019081526020016000208490806001815401808255809150506001900390600052602060002001600090919091909150908161131791906124ab565b50836001846040516113299190611d96565b9081526020016040518091039020908161134391906124ab565b50336002856040516113559190611d96565b908152602001604051809103902060006101000a81548173ffffffffffffffffffffffffffffffffffffffff021916908373ffffffffffffffffffffffffffffffffffffffff1602179055506040518060a00160405280858152602001848152602001428152602001838152602001828152506003856040516113d89190611d96565b908152602001604051809103902060008201518160000190816113fb91906124ab565b50602082015181600101908161141191906124ab565b5060408201518160020155606082015181600301908161143191906124ab565b50608082015181600401908161144791906124ab565b509050503373ffffffffffffffffffffffffffffffffffffffff167f067399b1ffd033632ac3b4570f51329e1fe67ea0be9f4fb56b4e2a8760b6becb858585426040516114979493929190612788565b60405180910390a250505050565b60606001826040516114b79190611d96565b908152602001604051809103902080546114d090611e77565b80601f01602080910402602001604051908101604052809291908181526020018280546114fc90611e77565b80156115495780601f1061151e57610100808354040283529160200191611549565b820191906000526020600020905b81548152906001019060200180831161152c57829003601f168201915b50505050509050919050565b50805461156190611e77565b6000825580601f106115735750611592565b601f01602090049060005260206000209081019061159191906115c4565b5b50565b6040518060a0016040528060608152602001606081526020016000815260200160608152602001606081525090565b5b808211156115dd5760008160009055506001016115c5565b5090565b6000604051905090565b600080fd5b600080fd5b600080fd5b600080fd5b6000601f19601f8301169050919050565b7f4e487b7100000000000000000000000000000000000000000000000000000000600052604160045260246000fd5b611648826115ff565b810181811067ffffffffffffffff8211171561166757611666611610565b5b80604052505050565b600061167a6115e1565b9050611686828261163f565b919050565b600067ffffffffffffffff8211156116a6576116a5611610565b5b6116af826115ff565b9050602081019050919050565b82818337600083830152505050565b60006116de6116d98461168b565b611670565b9050828152602081018484840111156116fa576116f96115fa565b5b6117058482856116bc565b509392505050565b600082601f830112611722576117216115f5565b5b81356117328482602086016116cb565b91505092915050565b600060208284031215611751576117506115eb565b5b600082013567ffffffffffffffff81111561176f5761176e6115f0565b5b61177b8482850161170d565b91505092915050565b6000806040838503121561179b5761179a6115eb565b5b600083013567ffffffffffffffff8111156117b9576117b86115f0565b5b6117c58582860161170d565b925050602083013567ffffffffffffffff8111156117e6576117e56115f0565b5b6117f28582860161170d565b9150509250929050565b60008115159050919050565b611811816117fc565b82525050565b600060208201905061182c6000830184611808565b92915050565b600073ffffffffffffffffffffffffffffffffffffffff82169050919050565b600061185d82611832565b9050919050565b61186d81611852565b811461187857600080fd5b50565b60008135905061188a81611864565b92915050565b6000602082840312156118a6576118a56115eb565b5b60006118b48482850161187b565b91505092915050565b600081519050919050565b600082825260208201905092915050565b6000819050602082019050919050565b600081519050919050565b600082825260208201905092915050565b60005b83811015611923578082015181840152602081019050611908565b60008484015250505050565b600061193a826118e9565b61194481856118f4565b9350611954818560208601611905565b61195d816115ff565b840191505092915050565b6000611974838361192f565b905092915050565b6000602082019050919050565b6000611994826118bd565b61199e81856118c8565b9350836020820285016119b0856118d9565b8060005b858110156119ec57848403895281516119cd8582611968565b94506119d88361197c565b925060208a019950506001810190506119b4565b50829750879550505050505092915050565b60006020820190508181036000830152611a188184611989565b905092915050565b600080600080600060a08688031215611a3c57611a3b6115eb565b5b600086013567ffffffffffffffff811115611a5a57611a596115f0565b5b611a668882890161170d565b955050602086013567ffffffffffffffff811115611a8757611a866115f0565b5b611a938882890161170d565b945050604086013567ffffffffffffffff811115611ab457611ab36115f0565b5b611ac08882890161170d565b935050606086013567ffffffffffffffff811115611ae157611ae06115f0565b5b611aed8882890161170d565b925050608086013567ffffffffffffffff811115611b0e57611b0d6115f0565b5b611b1a8882890161170d565b9150509295509295909350565b6000819050919050565b611b3a81611b27565b82525050565b600060a0830160008301518482036000860152611b5d828261192f565b91505060208301518482036020860152611b77828261192f565b9150506040830151611b8c6040860182611b31565b5060608301518482036060860152611ba4828261192f565b91505060808301518482036080860152611bbe828261192f565b9150508091505092915050565b60006020820190508181036000830152611be58184611b40565b905092915050565b611bf681611852565b82525050565b6000602082019050611c116000830184611bed565b92915050565b60008060008060808587031215611c3157611c306115eb565b5b600085013567ffffffffffffffff811115611c4f57611c4e6115f0565b5b611c5b8782880161170d565b945050602085013567ffffffffffffffff811115611c7c57611c7b6115f0565b5b611c888782880161170d565b935050604085013567ffffffffffffffff811115611ca957611ca86115f0565b5b611cb58782880161170d565b925050606085013567ffffffffffffffff811115611cd657611cd56115f0565b5b611ce28782880161170d565b91505092959194509250565b600082825260208201905092915050565b6000611d0a826118e9565b611d148185611cee565b9350611d24818560208601611905565b611d2d816115ff565b840191505092915050565b60006020820190508181036000830152611d528184611cff565b905092915050565b600081905092915050565b6000611d70826118e9565b611d7a8185611d5a565b9350611d8a818560208601611905565b80840191505092915050565b6000611da28284611d65565b915081905092915050565b7f4e6f7420746865206f776e6572206f662074686973206d657461646174610000600082015250565b6000611de3601e83611cee565b9150611dee82611dad565b602082019050919050565b60006020820190508181036000830152611e1281611dd6565b9050919050565b7f4e487b7100000000000000000000000000000000000000000000000000000000600052603260045260246000fd5b7f4e487b7100000000000000000000000000000000000000000000000000000000600052602260045260246000fd5b60006002820490506001821680611e8f57607f821691505b602082108103611ea257611ea1611e48565b5b50919050565b600081905092915050565b60008190508160005260206000209050919050565b60008154611ed581611e77565b611edf8186611ea8565b94506001821660008114611efa5760018114611f0f57611f42565b60ff1983168652811515820286019350611f42565b611f1885611eb3565b60005b83811015611f3a57815481890152600182019150602081019050611f1b565b838801955050505b50505092915050565b6000611f578284611ec8565b915081905092915050565b7f4e487b7100000000000000000000000000000000000000000000000000000000600052601160045260246000fd5b6000611f9c82611b27565b9150611fa783611b27565b9250828203905081811115611fbf57611fbe611f62565b5b92915050565b600081549050611fd481611e77565b9050919050565b60008190508160005260206000209050919050565b60008190508160005260206000209050919050565b60006020601f8301049050919050565b600082821b905092915050565b6000600883026120527fffffffffffffffffffffffffffffffffffffffffffffffffffffffffffffffff82612015565b61205c8683612015565b95508019841693508086168417925050509392505050565b6000819050919050565b600061209961209461208f84611b27565b612074565b611b27565b9050919050565b6000819050919050565b6120b38361207e565b6120c76120bf826120a0565b848454612022565b825550505050565b600090565b6120dc6120cf565b6120e78184846120aa565b505050565b5b8181101561210b576121006000826120d4565b6001810190506120ed565b5050565b601f8211156121505761212181611fdb565b61212a84612005565b81016020851015612139578190505b61214d61214585612005565b8301826120ec565b50505b505050565b600082821c905092915050565b600061217360001984600802612155565b1980831691505092915050565b600061218c8383612162565b9150826002028217905092915050565b8181036121aa575050612282565b6121b382611fc5565b67ffffffffffffffff8111156121cc576121cb611610565b5b6121d68254611e77565b6121e182828561210f565b6000601f83116001811461221057600084156121fe578287015490505b6122088582612180565b86555061227b565b601f19841661221e87611ff0565b965061222986611fdb565b60005b828110156122515784890154825560018201915060018501945060208101905061222c565b8683101561226e578489015461226a601f891682612162565b8355505b6001600288020188555050505b5050505050505b565b7f4e487b7100000000000000000000000000000000000000000000000000000000600052603160045260246000fd5b60006122be82611b27565b91507fffffffffffffffffffffffffffffffffffffffffffffffffffffffffffffffff82036122f0576122ef611f62565b5b600182019050919050565b7f4e6577204349442063616e6e6f7420626520656d707479000000000000000000600082015250565b6000612331601783611cee565b915061233c826122fb565b602082019050919050565b6000602082019050818103600083015261236081612324565b9050919050565b7f486173682063616e6e6f7420626520656d707479000000000000000000000000600082015250565b600061239d601483611cee565b91506123a882612367565b602082019050919050565b600060208201905081810360008301526123cc81612390565b9050919050565b7f4e65772043494420616c72656164792072656769737465726564000000000000600082015250565b6000612409601a83611cee565b9150612414826123d3565b602082019050919050565b60006020820190508181036000830152612438816123fc565b9050919050565b7f4e6577206861736820616c726561647920657869737473000000000000000000600082015250565b6000612475601783611cee565b91506124808261243f565b602082019050919050565b600060208201905081810360008301526124a481612468565b9050919050565b6124b4826118e9565b67ffffffffffffffff8111156124cd576124cc611610565b5b6124d78254611e77565b6124e282828561210f565b600060209050601f8311600181146125155760008415612503578287015190505b61250d8582612180565b865550612575565b601f19841661252386611fdb565b60005b8281101561254b57848901518255600182019150602085019450602081019050612526565b868310156125685784890151612564601f891682612162565b8355505b6001600288020188555050505b505050505050565b600060608201905081810360008301526125978186611cff565b905081810360208301526125ab8185611cff565b905081810360408301526125bf8184611cff565b9050949350505050565b7f4d6574616461746120646f6573206e6f74206578697374000000000000000000600082015250565b60006125ff601783611cee565b915061260a826125c9565b602082019050919050565b6000602082019050818103600083015261262e816125f2565b9050919050565b7f4349442063616e6e6f7420626520656d70747900000000000000000000000000600082015250565b600061266b601383611cee565b915061267682612635565b602082019050919050565b6000602082019050818103600083015261269a8161265e565b9050919050565b7f43494420616c7265616479207265676973746572656400000000000000000000600082015250565b60006126d7601683611cee565b91506126e2826126a1565b602082019050919050565b60006020820190508181036000830152612706816126ca565b9050919050565b7f4861736820616c72656164792065786973747300000000000000000000000000600082015250565b6000612743601383611cee565b915061274e8261270d565b602082019050919050565b6000602082019050818103600083015261277281612736565b9050919050565b61278281611b27565b82525050565b600060808201905081810360008301526127a28187611cff565b905081810360208301526127b68186611cff565b905081810360408301526127ca8185611cff565b90506127d96060830184612779565b9594505050505056fea26469706673582212204edd5899c14ac4cf2710fb168061b74ad82f1c4b6428def531d1b46b9a54e24064736f6c63430008130033",
  "linkReferences": {},
  "deployedLinkReferences": {}
}